:020000040800F2
:100000009805002001010008A5040008E30300088A
:10001000A1040008EB010008890C000800000000A2
:10002000000000000000000000000000BD05000806
:10003000EF01000800000000A7040008A90600085E
:100040001B0100081B0100081B0100081B01000820
:100050001B0100081B0100081B0100081B01000810
:100060001B0100081B0100081B0100081B01000800
:100070001B0100081B0100081B0100081B010008F0
:100080001B0100081B0100081B0100081B010008E0
:100090001B0100081B0100081B0100081B010008D0
:1000A0001B0100081B0100081B0100081B010008C0
:1000B0001B0100081B0100081B0100081B010008B0
:1000C0001B0100081B0100081B0100081B010008A0
:1000D0001B0100081B0100081B0100081B01000890
:1000E0001B0100081B0100081B010008DFF80CD0F1
:1000F00000F04AF800480047E11200089805002087
:100100000648804706480047FEE7FEE7FEE7FEE7B1
:10011000FEE7FEE7FEE7FEE7FEE7FEE7650700080D
:10012000ED0000082DE9F05F0546002092469B4651
:1001300088460646814640241BE0284641464746FD
:10014000224600F042F853465A46C01A914110D355
:1001500011461846224600F029F82D1A67EB0108CF
:100160004F4622460120002100F020F817EB00093D
:100170004E41201EA4F10104DFDC484631462A46E8
:100180004346BDE8F09F0000064C074D06E0E068DE
:1001900040F0010394E8070098471034AC42F6D3CE
:1001A000FFF7A8FF6416000884160008202A04DB65
:1001B000203A00FA02F1002070479140C2F120037A
:1001C00020FA03F3194390407047202A04DB203AB9
:1001D00021FA02F00021704721FA02F3D040C2F167
:1001E0002002914008431946704700BFFEE7704760
:1001F00010B501210D2000F067F90121014800F040
:100200008FF810BD000230002DE9F04102460025B4
:100210000026002000230024002791F803C00CF0E2
:100220000F0591F803C00CF0100CBCF1000F03D0C7
:1002300091F802C04CEA050591F800C0BCF1000F2E
:1002400031D0146800202BE04FF0010C0CFA00F3C1
:10025000B1F800C00CEA03069E4220D183004FF0A3
:100260000F0C0CFA03F7BC4305FA03FC4CEA040438
:1002700091F803C0BCF1280F06D14FF0010C0CFA25
:1002800000FCC2F814C00AE091F803C0BCF1480FAA
:1002900005D14FF0010C0CFA00FCC2F810C0401C54
:1002A0000828D1D31460B1F800C0BCF1FF0F34DDD1
:1002B000546800202EE000F1080C4FF0010808FA05
:1002C0000CF3B1F800C00CEA03069E4221D1830072
:1002D0004FF00F0C0CFA03F7BC4305FA03FC4CEA91
:1002E000040491F803C0BCF1280F05D100F1080CFB
:1002F00008FA0CF8C2F8148091F803C0BCF1480F5A
:1003000007D100F1080C4FF0010808FA0CF8C2F808
:100310001080401C0828CED35460BDE8F081000056
:10032000F0B50A46002300240021002500F0004615
:10033000B6F1004F02D11D4EF16901E01B4E71680C
:10034000C0F3034583B200F44016B6F5401F08D150
:1003500021F07061154E766826F07066134F7E604E
:1003600012E000F48016B6F5801F06D1032606FAC7
:1003700005F4A14341F0706106E0460D360103FA31
:1003800006F6B14341F0706122B1460D360103FA21
:1003900006F6314300F00046B6F1004F02D1034E9D
:1003A000F16101E0014E7160F0BD0000000001400C
:1003B0000246002093680B400BB1012000E00020B2
:1003C000704702460020D3680B400BB1012000E0CB
:1003D00000207047416170470AB1016100E041614E
:1003E000704700BFFEE7000038B500241CE004EBB6
:1003F00044010F4A52F82100012100F065F804EB96
:1004000044000B4901EB80008088ADF800004820D3
:100410008DF8030004EB4401054A02EB8101886872
:100420006946FFF7F1FE641C012CE0DB38BD0000DB
:100430006000002038B500242CE004EB4401174A8A
:1004400052F82100012100F03FF804EB4400134969
:1004500001EB80008088ADF8000003208DF80200D9
:1004600010208DF8030004EB44010C4A02EB8101DB
:1004700088686946FFF7C8FE04EB4402074B03EBAC
:100480008202918804EB440203EB82029068FFF73A
:10049000A1FF641C032CD0DB38BD00007C000020D1
:1004A00000BFFEE77047704729B1064AD269024390
:1004B000044BDA6104E0034AD2698243014BDA61FA
:1004C000704700000010024029B1064A92690243B9
:1004D000044B9A6104E0034A92698243014B9A619A
:1004E000704700000010024030B5002100220024B7
:1004F00000232D4D6D6805F00C0121B1042905D0B4
:10050000082923D105E0294D056022E0274D05602B
:100510001FE0254D6D6805F47012234D6D6805F4DC
:100520008034022505EB92421CB9214D55430560EC
:100530000BE01D4D6D6805F400351DB11C4D554394
:10054000056002E0194D5543056002E0174D056056
:1005500000BF00BF144D6D6805F0F0010909154D8D
:100560006B5C0568DD4045600F4D6D6805F4E0612A
:10057000090A104D6B5C4568DD4085600A4D6D6869
:1005800005F46051C90A0B4D6B5C4568DD40C560E0
:10059000054D6D6805F44041890B074D6B5CC568DE
:1005A000B5FBF3F5056130BD0010024000127A0082
:1005B00000093D001400002024000020704710B501
:1005C00000F002F810BD00000CB500200190009072
:1005D0003348006840F480303149086000BF30483B
:1005E000006800F4003000900198401C01900098D1
:1005F00018B90198B0F5A06FF1D12948006800F44E
:10060000003010B10120009001E00020009000981F
:10061000012843D12348006840F0100021490860B8
:100620000846006820F0030008600846006840F0B3
:10063000020008601A484068194948600846406846
:1006400048600846406840F480604860084640685A
:1006500020F47C1048600846406840F4E810486088
:100660000846006840F08070086000BF0C480068D1
:1006700000F000700028F9D00948406820F003001D
:10068000074948600846406840F00200486000BFE3
:100690000348406800F00C000828F9D10CBD0000A8
:1006A00000100240002002400448D0E900305A1CEB
:1006B00040F100000149C1E90020704758000020C6
:1006C00010B5002100200022214B5B6803F00C01D3
:1006D00021B1042906D0082928D107E01D4B1E4C62
:1006E000236027E01B4B1C4C236023E0184B5B6806
:1006F00003F47010164B5B6803F48032022303EBA3
:10070000904022B9154B4343134C23600DE0104B2E
:100710005B6803F4003323B1104B43430E4C23605A
:1007200003E00C4B43430C4C236003E0094B0A4CA1
:10073000236000BF00BF064B5B68C3F30313084C84
:10074000E15C054B1B68CB40034C236010BD0000EF
:100750000010024000127A000000002000093D0055
:100760000400002010B51348006840F00100114952
:10077000086008464068104908400E49486008462D
:1007800000680E4908400B4908600846006820F4DC
:10079000802008600846406820F4FE0048604FF45E
:1007A0001F008860FFF70BFF4FF0006004490860EE
:1007B00010BD0000001002400000FFF8FFFFF6FE31
:1007C00008ED00E021B1028842F08002028004E0DE
:1007D00002884FF67F731A400280704721B1028869
:1007E00042F00102028004E002884FF6FE731A40D4
:1007F0000280704770B5002400220023058C4FF65C
:10080000FE7635400584028C8388048B4FF68F7505
:100810002C40B51E2C400D882C43751E2A400D8996
:100820002A434D882A43144DA8420BD0134DA842A9
:1008300008D0134DA84205D0124DA84202D0124D47
:10084000A84213D14FF6F7752A404D892A434FF637
:10085000FB752A408D882A434FF6FF652B404FF6E3
:10086000FF552B408D892B43CD892B4383800483F7
:10087000CD888586028470BD002C01400034014083
:100880000040014000440140004801400A46002168
:10089000018B4FF6F7731940114301837047000035
:1008A00070B5002400220023058C4FF6EF7635400A
:1008B0000584028C8388048B48F6FF752C404FF624
:1008C000FF452C400D884FF6FF7606EA05252C43A0
:1008D0004FF6DF752A400D8906EA05152A434D8833
:1008E00006EA05152A43154DA84202D0144DA84228
:1008F0001DD14FF67F752A404D894FF6FF7606EAE7
:1009000005152A434FF6BF752A408D8806EA05155E
:100910002A434FF6FF352B404FF2FF752B408D8950
:1009200006EA85052B43CD8906EA85052B4383809E
:100930000483CD880587028470BD0000002C01402F
:10094000003401400A460021018B4FF2FF73194029
:100950004FF6FF7303EA0223194301837047000037
:1009600070B5002400220023058C4FF6FF66354049
:100970000584028C8388848B4FF68F752C404FF64C
:10098000FC752C400D882C434FF6FF552A400D89ED
:100990004FF6FF7606EA05252A434D8806EA052527
:1009A0002A43154DA84202D0144DA8421DD14FF242
:1009B000FF752A404D894FF6FF7606EA05252A4342
:1009C0004FF6FF352A408D8806EA05252A434EF664
:1009D000FF752B404DF6FF752B408D8906EA0515F6
:1009E0002B43CD8906EA05152B4383808483CD886C
:1009F0008587028470BD0000002C01400034014056
:100A00000A460021818B4FF6F77319401143818309
:100A10007047000070B5002200230024058C4EF6BC
:100A2000FF7635400584038C8488828B48F6FF75F9
:100A30002A404FF6FF452A400D884FF6FF7606EA1A
:100A400005252A434DF6FF752B400D8906EA05352D
:100A50002B434D8806EA05352B430B4DA84202D0A7
:100A60000A4DA84208D14BF6FF752C408D894FF6F0
:100A7000FF7606EA85152C4384808283CD88A0F812
:100A80004050038470BD0000002C01400034014040
:100A90000A460021818B4FF2FF7319404FF6FF7316
:100AA00003EA022319438183704700000022028871
:100AB0001D4B98420ED01D4B98420BD0B0F1804F89
:100AC00008D01B4B984205D01A4B984202D01A4BC3
:100AD000984204D14FF68F731A404B881A43174B34
:100AE000984207D0164B984204D04FF6FF431A4065
:100AF000CB881A4302808B8883850B8803850A4B39
:100B000098420BD0094B984208D00E4B984205D022
:100B10000D4B984202D00D4B984201D10B7A0386BF
:100B20000123838270470000002C01400034014003
:100B30000004004000080040000C0040001000408D
:100B400000140040004001400044014000480140C2
:100B500001F40072B2F5007F00D100BFCA430280E9
:100B6000704721B1828942F40052828104E0828977
:100B70004DF6FF731A40828170471AB1838A0B4386
:100B8000838202E0838A8B4383827047024600207F
:100B9000B1F5007F00D100BF13880B400BB10120DD
:100BA00000E00020704700002DE9F04786B00546C0
:100BB0000E460024A24600BFA1460027B08900B11E
:100BC00000BF2F462C8A4CF6FF700440F088044387
:100BD0002C82AC894EF6F3100440B088318908436A
:100BE000718908430443AC81AC8A4FF6FF4004404E
:100BF000B0890443AC8201A8FFF776FC1F48874206
:100C000002D1DDF810A001E0DDF80CA0A88900F405
:100C1000004040B10AEBCA0000EB0A1031684900FD
:100C2000B0FBF1F807E00AEBCA0000EB0A103168EC
:100C30008900B0FBF1F86420B8FBF0F00401200952
:100C4000642101FB1089A88900F4004040B13220E2
:100C500000EBC900B0FBF1F000F00700044308E02E
:100C6000322000EB09106421B0FBF1F000F00F001E
:100C700004432C8106B0BDE8F08700000038014035
:100C8000C1F308028280704700BFFEE70FB4054B36
:100C900010B503A9044A029800F018F810BC5DF8DA
:100CA00014FB0000110F0008A400002002E008C897
:100CB000121F08C1002AFAD170477047002001E0D6
:100CC00001C1121F002AFBD1704700002DE9FF4F20
:100CD0008BB09A460F460446002606E025280BD026
:100CE00052460D999047641C761C20780028F5D157
:100CF0000FB03046BDE8F08F0025A94601227D499E
:100D000000E0054314F8013F203B02FA03F00842DB
:100D1000F7D120782E2817D114F8010F45F00405DB
:100D20002A280ED06FF02F022078A0F13001092977
:100D30000AD809EB890102EB410100EB0109641CAF
:100D4000F2E757F8049B641C20786C280DD004DC73
:100D50004C2812D06A2811D104E074280DD07A28CA
:100D60000CD10AE045F4001507E0617845F48015E0
:100D7000814202D1641C05F58015641C2078692825
:100D80003ED006DC0028B3D063280BD0642804D101
:100D900036E0732810D075285CD052460D999047E4
:100DA000761CA5E017F8040B8DF8000000208DF8E4
:100DB0000100E846012003E057F8048B4FF0FF30B4
:100DC00069074FF0000501D40AE06D1C4D450DDAAE
:100DD0008542FADB18F805100029F6D106E06D1CF3
:100DE0008542FCDB18F805100029F8D12E4404E0F8
:100DF00018F8010B52460D9990476D1EF8D277E016
:100E000000200A90C5F302504FF00A0B02280CD0C4
:100E100001CFC117021E71F100020CDA0023D0EBE2
:100E2000030063EB01012D2208E0FF1D27F00707F7
:100E3000F7E80201EEE72A0504D52B228DF82420DD
:100E4000012203E0EA070FD02022F7E70DF1200886
:100E5000089218E000200A90C5F302504FF00A0BE8
:100E6000022803D001CF00210022EFE7FF1D27F069
:100E70000707F7E80201F7E75A460A9BFFF752F91E
:100E8000303208F8012D50EA0102F5D1ADEB08002F
:100E900000F1200B680701D44FF00109D94502DDAC
:100EA000A9EB0B0000E000208146002506E009A820
:100EB0005246405D0D9990476D1C761C08988542FE
:100EC000F5DB04E0302052460D999047761CB9F1CD
:100ED0000001A9F10109F5DC05E018F8010B524603
:100EE0000D999047761CBBF10001ABF1010BF4DCCE
:100EF000641CFAE60928010010B500F06DFB00F053
:100F0000E9F900F031F900F013F800F031FA10BD02
:100F100070B504460D46E1B2002000F0BFF820464F
:100F200070BD0000014903C970470000580000204F
:100F300010B586B00024A9E004EB4401564A02EB48
:100F40000111C8690121FFF7BFFA04EB4401524ABD
:100F500002EB011108690121FFF7B6FA04EB440026
:100F60004D4901EB00100068B0F5804F03D0B0F59B
:100F7000003F0AD104E001218803FFF7A5FA06E04B
:100F800001214804FFF790FA01E000BFFEE700BF2F
:100F900004EB4400404901EB0010808AADF81400D6
:100FA00018208DF8170003208DF8160004EB44017B
:100FB000394A02EB0111886905A9FFF725F904EB0D
:100FC0004400354901EB0010008CADF814000420FA
:100FD0008DF8170004EB44012F4A02EB0111486A17
:100FE00005A9FFF711F904EB44002B4901EB0010B0
:100FF000406801900020ADF80800ADF80A00ADF897
:101000000C00ADF810000C20ADF80E0004EB44010C
:10101000214A02EB0111886801A9FFF7C5FD04EB25
:1010200044011D4A02EB011188680121FFF799FD77
:1010300004EB4401184A02EB011188684021FFF7D4
:1010400087FD04EB4401144B03EB01110A7B04EB15
:10105000440103EB011188688021FFF78EFD04EB4A
:1010600044010D4B03EB01114A7B04EB440103EBFC
:10107000011188684021FFF780FD002104EB440244
:10108000054B03EB02129162D162641C012CFFF646
:1010900053AF06B010BD00002800002070B5044614
:1010A0000D4604EB44010A4A02EB01118868294607
:1010B000FFF7E6FD00BF04EB4401054A02EB011116
:1010C00088684021FFF762FD0128F4D170BD00005F
:1010D000280000207CB50646012000F0D5F802204B
:1010E00000F0D2F8FFF71EFF04460B461620054914
:1010F0002246CDE9001004A0FFF7C8FD0DA0FFF7C0
:10110000C5FD7CBD4D1600081B5B34303B33326D92
:101110005B256C6C645D1B5B306D201B5B323B346C
:10112000303B33336D2573282564291B5B306D3AC2
:10113000200000006B6579207072657373200D0AC2
:101140000000000010B5044604EB4402054B03EB1D
:101150008202918804EB440203EB82029068FFF75D
:1011600027F910BD6000002010B5FFF73DF910BD54
:101170002DE9F0410546002600241CE02046FFF73B
:10118000E1FFB0B9224890F900002249087060B22E
:101190001F49087001261F4890F9000091F90010BE
:1011A000884205D01C48D0E900101C4AC2E9001052
:1011B00003E0601CC4B2012CE0DB00BF16B9FF20C5
:1011C000134908701448D0E90010144A88CACA1A92
:1011D00060EB0700322300219A1A814115D20C4896
:1011E00090F90000401C58B10D4890F900000849E2
:1011F00091F90010884203D0054890F90000A847F3
:10120000034890F9000006490870BDE8F08100002D
:101210006D0000206C0000205800002070000020AD
:10122000780000207CB5002000F02EF8FFF77AFE51
:1012300004460B460E2005492246CDE9001004A0C5
:10124000FFF724FD0DA0FFF721FD7CBD441600082B
:101250001B5B34303B33326D5B256C6C645D1B5B18
:10126000306D201B5B323B34303B33336D257328AC
:101270002564291B5B306D3A2000000072657620E2
:101280006C656473200D0A0070B5044604EB4402DB
:101290000F4B03EB8202918804EB440203EB8202C2
:1012A0009068FFF78EF808B9012000E0002005469D
:1012B00004EB4402064B03EB8202918804EB4402E8
:1012C00003EB820290682A46FFF786F870BD0000A3
:1012D0007C00002010B5FEF78BFFFFF7ABF810BDC8
:1012E0001CB5FFF709FE00F0F5F864200E4B012253
:1012F00011460090002000F0BBF8FFF713FE0446F3
:101300000B46222009492246CDE9001008A0FFF72C
:10131000BDFC12A0FFF7BAFC04E000F019F9134875
:10132000FFF726FFF9E70000251200085C16000809
:101330001B5B34303B33326D5B256C6C645D1B5B37
:10134000306D201B5B323B34303B33336D257328CB
:101350002564291B5B306D3A20000000696E6974BA
:101360002073756363657373200D0A00D510000840
:1013700000B589B001210C20FFF7A6F80121022059
:10138000FFF792F818208DF8230003208DF8220033
:101390004020ADF8200008A93248FEF735FF802034
:1013A000ADF8200008A92F48FEF72EFF0120ADF868
:1013B000200008A92C48FEF727FF0220ADF82000E6
:1013C00008A92948FEF720FF0020ADF8040041F6E7
:1013D0001F40ADF808000020ADF80A00ADF8060087
:1013E00001A92248FFF762FB6020ADF81000012040
:1013F000ADF812000020ADF81800ADF8160004A9F1
:101400001A48FFF7F7F908211848FFF73FFA0020BC
:10141000ADF8160004A91548FFF742FA0821134851
:10142000FFF790FA0020ADF8160004A90F48FFF767
:1014300097FA08210D48FFF7E3FA0020ADF81600EF
:1014400004A90A48FFF7E6FA08210848FFF720FB3D
:1014500001210648FFF7B6F901210448FFF7BEF95C
:1014600009B000BD00080140000C0140000400402C
:101470002DE9F04104460D4616461F46DDF818805A
:101480000A2C03DB4FF0FF30BDE8F08104EB440091
:101490000E4901F8306004EB440001EBC0004570D8
:1014A00004EB440001EBC000876004EB440001EB57
:1014B000C000C0F80480FFF735FD04EB4402034B85
:1014C00003EBC202C2E904012046DDE7A8000020C8
:1014D0007047000000201B4908702EE000201949C9
:1014E000097801EB4101184A02F8310015490978E1
:1014F00001EB410102EBC101487014481149097820
:1015000001EB410102EBC10188604FF47A700D4993
:10151000097801EB410102EBC10148600021094A51
:10152000127802EB4202084B03EBC20211615161D7
:1015300004480078401C03490870024800780A28D3
:10154000CCDB7047A0000020A8000020D1140008C8
:1015500010B500243BE004EB44001E4901EBC00041
:101560004078012831D1FFF7DDFC04EB4402194B30
:1015700003EBC202D2E90432C31A61EB020104EBAD
:101580004400144A02EBC0004068181A71F10001CF
:101590001BD304EB4400114611F8300028B9002099
:1015A00004EB440102EBC101487004EB4401094A19
:1015B00002EBC10188688047FFF7B4FC04EB4402EA
:1015C000044B03EBC202C2E90401601CC4B20A2C42
:1015D000C1DB10BDA800002070B5FFF771F81648F8
:1015E00000684FF47A72B0FBF2F1B1F1807F01D361
:1015F00001201DE021F07F40401E4FF0E0225061AD
:1016000050170F22002807DA13071D0E0B4B00F0AE
:101610000F04241F1D5503E013071C0E084B1C5418
:1016200000BF00204FF0E0229061072010610020F1
:1016300008B100BFFEE770BD0000002018ED00E01B
:1016400000E400E06C65645F70726F63006B657945
:101650005F70726573735F70726F63006D61696E46
:10166000000000008416000800000020A800000010
:10167000AC0C00082C170008A8000020F0040000A3
:10168000BC0C000800A24A0400000000000000009A
:101690000102030406070809000000000102030418
:1016A00001020304060708090204060800400000BE
:1016B00000C20100003801400000000004000000EA
:1016C00000020000000801400400000000040000C7
:1016D00000080140000000000000000000000000C1
:1016E0000000000010000000008000000010014019
:1016F000FFFF00000000000000000000FF000000ED
:101700000400000008000000000801400400000080
:10171000001000000008014004000000100000005C
:0C17200000080140000000000000000074
:04000005080000ED02
:00000001FF
